{
  "address": "0x3C9EEF4a4BfbdEEe0c6DBc0fE2d43Cf6b6FF3ecD",
  "abi": [
    {
      "inputs": [
        {
          "internalType": "address",
          "name": "newOwner",
          "type": "address"
        },
        {
          "internalType": "string",
          "name": "_baseURI",
          "type": "string"
        },
        {
          "internalType": "uint256",
          "name": "_openTime",
          "type": "uint256"
        },
        {
          "internalType": "uint256",
          "name": "_supply",
          "type": "uint256"
        }
      ],
      "stateMutability": "nonpayable",
      "type": "constructor"
    },
    {
      "anonymous": false,
      "inputs": [
        {
          "indexed": true,
          "internalType": "address",
          "name": "owner",
          "type": "address"
        },
        {
          "indexed": true,
          "internalType": "address",
          "name": "approved",
          "type": "address"
        },
        {
          "indexed": true,
          "internalType": "uint256",
          "name": "tokenId",
          "type": "uint256"
        }
      ],
      "name": "Approval",
      "type": "event"
    },
    {
      "anonymous": false,
      "inputs": [
        {
          "indexed": true,
          "internalType": "address",
          "name": "owner",
          "type": "address"
        },
        {
          "indexed": true,
          "internalType": "address",
          "name": "operator",
          "type": "address"
        },
        {
          "indexed": false,
          "internalType": "bool",
          "name": "approved",
          "type": "bool"
        }
      ],
      "name": "ApprovalForAll",
      "type": "event"
    },
    {
      "anonymous": false,
      "inputs": [
        {
          "indexed": false,
          "internalType": "string",
          "name": "uri",
          "type": "string"
        }
      ],
      "name": "BaseURIUpdated",
      "type": "event"
    },
    {
      "anonymous": false,
      "inputs": [
        {
          "indexed": false,
          "internalType": "uint256",
          "name": "time",
          "type": "uint256"
        }
      ],
      "name": "OpenTimeUpdated",
      "type": "event"
    },
    {
      "anonymous": false,
      "inputs": [
        {
          "indexed": true,
          "internalType": "address",
          "name": "previousOwner",
          "type": "address"
        },
        {
          "indexed": true,
          "internalType": "address",
          "name": "newOwner",
          "type": "address"
        }
      ],
      "name": "OwnershipTransferred",
      "type": "event"
    },
    {
      "anonymous": false,
      "inputs": [
        {
          "indexed": false,
          "internalType": "uint256",
          "name": "remains",
          "type": "uint256"
        }
      ],
      "name": "RemainsUpdated",
      "type": "event"
    },
    {
      "anonymous": false,
      "inputs": [
        {
          "indexed": false,
          "internalType": "uint256",
          "name": "supply",
          "type": "uint256"
        }
      ],
      "name": "SupplyUpdated",
      "type": "event"
    },
    {
      "anonymous": false,
      "inputs": [
        {
          "indexed": true,
          "internalType": "address",
          "name": "from",
          "type": "address"
        },
        {
          "indexed": true,
          "internalType": "address",
          "name": "to",
          "type": "address"
        },
        {
          "indexed": true,
          "internalType": "uint256",
          "name": "tokenId",
          "type": "uint256"
        }
      ],
      "name": "Transfer",
      "type": "event"
    },
    {
      "anonymous": false,
      "inputs": [
        {
          "indexed": false,
          "internalType": "address",
          "name": "to",
          "type": "address"
        },
        {
          "indexed": false,
          "internalType": "bool",
          "name": "isWhite",
          "type": "bool"
        }
      ],
      "name": "WhiteListUpdated",
      "type": "event"
    },
    {
      "inputs": [
        {
          "internalType": "address",
          "name": "to",
          "type": "address"
        },
        {
          "internalType": "uint256",
          "name": "tokenId",
          "type": "uint256"
        }
      ],
      "name": "approve",
      "outputs": [],
      "stateMutability": "nonpayable",
      "type": "function"
    },
    {
      "inputs": [
        {
          "internalType": "address",
          "name": "owner",
          "type": "address"
        }
      ],
      "name": "balanceOf",
      "outputs": [
        {
          "internalType": "uint256",
          "name": "",
          "type": "uint256"
        }
      ],
      "stateMutability": "view",
      "type": "function"
    },
    {
      "inputs": [],
      "name": "baseURI",
      "outputs": [
        {
          "internalType": "string",
          "name": "",
          "type": "string"
        }
      ],
      "stateMutability": "view",
      "type": "function"
    },
    {
      "inputs": [
        {
          "internalType": "uint256",
          "name": "tokenId",
          "type": "uint256"
        }
      ],
      "name": "burn",
      "outputs": [],
      "stateMutability": "nonpayable",
      "type": "function"
    },
    {
      "inputs": [
        {
          "internalType": "uint256",
          "name": "tokenId",
          "type": "uint256"
        }
      ],
      "name": "getApproved",
      "outputs": [
        {
          "internalType": "address",
          "name": "",
          "type": "address"
        }
      ],
      "stateMutability": "view",
      "type": "function"
    },
    {
      "inputs": [
        {
          "internalType": "address",
          "name": "owner",
          "type": "address"
        },
        {
          "internalType": "address",
          "name": "operator",
          "type": "address"
        }
      ],
      "name": "isApprovedForAll",
      "outputs": [
        {
          "internalType": "bool",
          "name": "",
          "type": "bool"
        }
      ],
      "stateMutability": "view",
      "type": "function"
    },
    {
      "inputs": [
        {
          "internalType": "address",
          "name": "",
          "type": "address"
        }
      ],
      "name": "isClaimed",
      "outputs": [
        {
          "internalType": "bool",
          "name": "",
          "type": "bool"
        }
      ],
      "stateMutability": "view",
      "type": "function"
    },
    {
      "inputs": [],
      "name": "mint",
      "outputs": [],
      "stateMutability": "nonpayable",
      "type": "function"
    },
    {
      "inputs": [],
      "name": "name",
      "outputs": [
        {
          "internalType": "string",
          "name": "",
          "type": "string"
        }
      ],
      "stateMutability": "view",
      "type": "function"
    },
    {
      "inputs": [],
      "name": "openTime",
      "outputs": [
        {
          "internalType": "uint256",
          "name": "",
          "type": "uint256"
        }
      ],
      "stateMutability": "view",
      "type": "function"
    },
    {
      "inputs": [],
      "name": "owner",
      "outputs": [
        {
          "internalType": "address",
          "name": "",
          "type": "address"
        }
      ],
      "stateMutability": "view",
      "type": "function"
    },
    {
      "inputs": [
        {
          "internalType": "address",
          "name": "to",
          "type": "address"
        },
        {
          "internalType": "uint256",
          "name": "amount",
          "type": "uint256"
        }
      ],
      "name": "ownerMint",
      "outputs": [],
      "stateMutability": "nonpayable",
      "type": "function"
    },
    {
      "inputs": [
        {
          "internalType": "uint256",
          "name": "tokenId",
          "type": "uint256"
        }
      ],
      "name": "ownerOf",
      "outputs": [
        {
          "internalType": "address",
          "name": "",
          "type": "address"
        }
      ],
      "stateMutability": "view",
      "type": "function"
    },
    {
      "inputs": [],
      "name": "remains",
      "outputs": [
        {
          "internalType": "uint256",
          "name": "",
          "type": "uint256"
        }
      ],
      "stateMutability": "view",
      "type": "function"
    },
    {
      "inputs": [],
      "name": "renounceOwnership",
      "outputs": [],
      "stateMutability": "nonpayable",
      "type": "function"
    },
    {
      "inputs": [
        {
          "internalType": "address",
          "name": "from",
          "type": "address"
        },
        {
          "internalType": "address",
          "name": "to",
          "type": "address"
        },
        {
          "internalType": "uint256",
          "name": "tokenId",
          "type": "uint256"
        }
      ],
      "name": "safeTransferFrom",
      "outputs": [],
      "stateMutability": "nonpayable",
      "type": "function"
    },
    {
      "inputs": [
        {
          "internalType": "address",
          "name": "from",
          "type": "address"
        },
        {
          "internalType": "address",
          "name": "to",
          "type": "address"
        },
        {
          "internalType": "uint256",
          "name": "tokenId",
          "type": "uint256"
        },
        {
          "internalType": "bytes",
          "name": "_data",
          "type": "bytes"
        }
      ],
      "name": "safeTransferFrom",
      "outputs": [],
      "stateMutability": "nonpayable",
      "type": "function"
    },
    {
      "inputs": [
        {
          "internalType": "address",
          "name": "operator",
          "type": "address"
        },
        {
          "internalType": "bool",
          "name": "approved",
          "type": "bool"
        }
      ],
      "name": "setApprovalForAll",
      "outputs": [],
      "stateMutability": "nonpayable",
      "type": "function"
    },
    {
      "inputs": [
        {
          "internalType": "string",
          "name": "_baseURI",
          "type": "string"
        }
      ],
      "name": "setBaseURI",
      "outputs": [],
      "stateMutability": "nonpayable",
      "type": "function"
    },
    {
      "inputs": [
        {
          "internalType": "uint256",
          "name": "time",
          "type": "uint256"
        }
      ],
      "name": "setOpenTime",
      "outputs": [],
      "stateMutability": "nonpayable",
      "type": "function"
    },
    {
      "inputs": [
        {
          "internalType": "uint256",
          "name": "",
          "type": "uint256"
        }
      ],
      "name": "slots",
      "outputs": [
        {
          "internalType": "uint256",
          "name": "",
          "type": "uint256"
        }
      ],
      "stateMutability": "view",
      "type": "function"
    },
    {
      "inputs": [],
      "name": "supply",
      "outputs": [
        {
          "internalType": "uint256",
          "name": "",
          "type": "uint256"
        }
      ],
      "stateMutability": "view",
      "type": "function"
    },
    {
      "inputs": [
        {
          "internalType": "bytes4",
          "name": "interfaceId",
          "type": "bytes4"
        }
      ],
      "name": "supportsInterface",
      "outputs": [
        {
          "internalType": "bool",
          "name": "",
          "type": "bool"
        }
      ],
      "stateMutability": "view",
      "type": "function"
    },
    {
      "inputs": [],
      "name": "symbol",
      "outputs": [
        {
          "internalType": "string",
          "name": "",
          "type": "string"
        }
      ],
      "stateMutability": "view",
      "type": "function"
    },
    {
      "inputs": [
        {
          "internalType": "uint256",
          "name": "index",
          "type": "uint256"
        }
      ],
      "name": "tokenByIndex",
      "outputs": [
        {
          "internalType": "uint256",
          "name": "",
          "type": "uint256"
        }
      ],
      "stateMutability": "view",
      "type": "function"
    },
    {
      "inputs": [
        {
          "internalType": "address",
          "name": "owner",
          "type": "address"
        },
        {
          "internalType": "uint256",
          "name": "index",
          "type": "uint256"
        }
      ],
      "name": "tokenOfOwnerByIndex",
      "outputs": [
        {
          "internalType": "uint256",
          "name": "",
          "type": "uint256"
        }
      ],
      "stateMutability": "view",
      "type": "function"
    },
    {
      "inputs": [
        {
          "internalType": "uint256",
          "name": "tokenId",
          "type": "uint256"
        }
      ],
      "name": "tokenURI",
      "outputs": [
        {
          "internalType": "string",
          "name": "",
          "type": "string"
        }
      ],
      "stateMutability": "view",
      "type": "function"
    },
    {
      "inputs": [],
      "name": "totalSupply",
      "outputs": [
        {
          "internalType": "uint256",
          "name": "",
          "type": "uint256"
        }
      ],
      "stateMutability": "view",
      "type": "function"
    },
    {
      "inputs": [
        {
          "internalType": "address",
          "name": "from",
          "type": "address"
        },
        {
          "internalType": "address",
          "name": "to",
          "type": "address"
        },
        {
          "internalType": "uint256",
          "name": "tokenId",
          "type": "uint256"
        }
      ],
      "name": "transferFrom",
      "outputs": [],
      "stateMutability": "nonpayable",
      "type": "function"
    },
    {
      "inputs": [
        {
          "internalType": "address",
          "name": "newOwner",
          "type": "address"
        }
      ],
      "name": "transferOwnership",
      "outputs": [],
      "stateMutability": "nonpayable",
      "type": "function"
    },
    {
      "inputs": [
        {
          "internalType": "address[]",
          "name": "_whiteList",
          "type": "address[]"
        },
        {
          "internalType": "bool",
          "name": "isWhite",
          "type": "bool"
        }
      ],
      "name": "updateWhiteList",
      "outputs": [],
      "stateMutability": "nonpayable",
      "type": "function"
    },
    {
      "inputs": [
        {
          "internalType": "address",
          "name": "",
          "type": "address"
        }
      ],
      "name": "whiteList",
      "outputs": [
        {
          "internalType": "bool",
          "name": "",
          "type": "bool"
        }
      ],
      "stateMutability": "view",
      "type": "function"
    }
  ],
  "transactionHash": "0xd8474fbf823b98244b349cc5f3bd573f2aada020daeaf8ee1584e5106bbb7a22",
  "args": [
    "0xF1658C608708172655A8e70a1624c29F956Ee63D",
    "ipfs://QmcmNwZMmcLiTrcdxv2XqX3ttcHb4pep9H5twfEGZBVTSK/",
    1652857469170,
    199
  ],
  "solcInputHash": "725fe0fa968dd3b62575a84ba2a2e492",
  "bytecode": "0x60806040523480156200001157600080fd5b5060405162002d6f38038062002d6f833981016040819052620000349162000478565b60408051808201825260078152664d657461204e3160c81b60208083019182528351808501909452600684526536b2ba30902760d11b908401528151919291620000819160009162000247565b5080516200009790600190602084019062000247565b505050620000b4620000ae620000fa60201b60201c565b620000fe565b620000bf84620000fe565b620000ca8362000150565b620000d582620001a2565b620000e081620001d9565b620000eb8162000210565b505043600b5550620005a59050565b3390565b600a80546001600160a01b038381166001600160a01b0319831681179093556040519116919082907f8be0079c531659141344cd1fd0a4f28419497f9722a3daafe3b4186f6b6457e090600090a35050565b80516200016590600c90602084019062000247565b507f6741b2fc379fad678116fe3d4d4b9a1a184ab53ba36b86ad0fa66340b1ab41ad8160405162000197919062000537565b60405180910390a150565b600f8190556040517fedf52943c0aac396addd64b076c17e483c8cbd18671cae7e23cff0f84ea3b323906200019790839062000551565b600d8190556040517fea4bfee7f9fb38136c61cc04b6e56efc93eaf1beef326dbc47495b358385914c906200019790839062000551565b600e8190556040517f63c082b5cbc0f3aaf280371a6539ef71ced3276990fc07a8bce55d4fda3fe10b906200019790839062000551565b828054620002559062000574565b90600052602060002090601f016020900481019282620002795760008555620002c4565b82601f106200029457805160ff1916838001178555620002c4565b82800160010185558215620002c4579182015b82811115620002c4578251825591602001919060010190620002a7565b50620002d2929150620002d6565b5090565b5b80821115620002d25760008155600101620002d7565b60006001600160a01b0382165b92915050565b6200030b81620002ed565b81146200031757600080fd5b50565b8051620002fa8162000300565b634e487b7160e01b600052604160045260246000fd5b601f19601f83011681018181106001600160401b038211171562000365576200036562000327565b6040525050565b60006200037860405190565b90506200038682826200033d565b919050565b60006001600160401b03821115620003a757620003a762000327565b601f19601f83011660200192915050565b60005b83811015620003d5578181015183820152602001620003bb565b83811115620003e5576000848401525b50505050565b600062000402620003fc846200038b565b6200036c565b9050828152602081018484840111156200041f576200041f600080fd5b6200042c848285620003b8565b509392505050565b600082601f8301126200044a576200044a600080fd5b81516200045c848260208601620003eb565b949350505050565b806200030b565b8051620002fa8162000464565b60008060008060808587031215620004935762000493600080fd5b6000620004a187876200031a565b94505060208501516001600160401b03811115620004c257620004c2600080fd5b620004d08782880162000434565b9350506040620004e3878288016200046b565b9250506060620004f6878288016200046b565b91505092959194509250565b60006200050d825190565b80845260208401935062000526818560208601620003b8565b601f01601f19169290920192915050565b602080825281016200054a818462000502565b9392505050565b81815260208101620002fa565b634e487b7160e01b600052602260045260246000fd5b6002810460018216806200058957607f821691505b602082108114156200059f576200059f6200055e565b50919050565b6127ba80620005b56000396000f3fe608060405234801561001057600080fd5b50600436106101f05760003560e01c80636352211e1161010f578063b4256888116100a2578063d9eed46411610071578063d9eed46414610413578063e985e9c514610426578063f2fde38b14610462578063f60ba3381461047557600080fd5b8063b4256888146103db578063b88d4fde146103e4578063c588ef6e146103f7578063c87b56dd1461040057600080fd5b80638cc08025116100de5780638cc080251461038c5780638da5cb5b146103af57806395d89b41146103c0578063a22cb465146103c857600080fd5b80636352211e146103565780636c0360eb1461036957806370a0823114610371578063715018a61461038457600080fd5b80632f745c591161018757806342966c681161015657806342966c681461030a578063484b973c1461031d5780634f6ccce71461033057806355f804b31461034357600080fd5b80632f745c59146102a1578063372c12b1146102b4578063387dd9e9146102d757806342842e0e146102f757600080fd5b8063095ea7b3116101c3578063095ea7b3146102695780631249c58b1461027e57806318160ddd1461028657806323b872dd1461028e57600080fd5b806301ffc9a7146101f5578063047fc9aa1461021e57806306fdde0314610234578063081812fc14610249575b600080fd5b610208610203366004611863565b610488565b604051610215919061188e565b60405180910390f35b610227600d5481565b60405161021591906118a2565b61023c6104b3565b604051610215919061190e565b61025c610257366004611930565b610545565b604051610215919061196b565b61027c61027736600461198d565b61059e565b005b61027c610624565b600854610227565b61027c61029c3660046119ca565b6106db565b6102276102af36600461198d565b61070d565b6102086102c2366004611a1a565b60116020526000908152604090205460ff1681565b6102276102e5366004611930565b60106020526000908152604090205481565b61027c6103053660046119ca565b61075f565b61027c610318366004611930565b61077a565b61027c61032b36600461198d565b6107ab565b61022761033e366004611930565b6107fb565b61027c610351366004611b36565b610849565b61025c610364366004611930565b61087c565b61023c6108b1565b61022761037f366004611a1a565b61093f565b61027c610983565b61020861039a366004611a1a565b60126020526000908152604090205460ff1681565b600a546001600160a01b031661025c565b61023c6109b9565b61027c6103d6366004611b84565b6109c8565b610227600f5481565b61027c6103f2366004611bb7565b6109d7565b610227600e5481565b61023c61040e366004611930565b610a0f565b61027c610421366004611cd9565b610a78565b610208610434366004611d15565b6001600160a01b03918216600090815260056020908152604080832093909416825291909152205460ff1690565b61027c610470366004611a1a565b610aac565b61027c610483366004611930565b610b05565b60006001600160e01b0319821663780e9d6360e01b14806104ad57506104ad82610b38565b92915050565b6060600080546104c290611d5e565b80601f01602080910402602001604051908101604052809291908181526020018280546104ee90611d5e565b801561053b5780601f106105105761010080835404028352916020019161053b565b820191906000526020600020905b81548152906001019060200180831161051e57829003601f168201915b5050505050905090565b6000818152600260205260408120546001600160a01b03166105825760405162461bcd60e51b815260040161057990611dd7565b60405180910390fd5b506000908152600460205260409020546001600160a01b031690565b60006105a98261087c565b9050806001600160a01b0316836001600160a01b031614156105dd5760405162461bcd60e51b815260040161057990611e25565b336001600160a01b03821614806105f957506105f98133610434565b6106155760405162461bcd60e51b815260040161057990611e8f565b61061f8383610b88565b505050565b42600f5410156106465760405162461bcd60e51b815260040161057990611ed6565b3360008181526011602052604090205460ff166106755760405162461bcd60e51b815260040161057990611f2b565b6001600160a01b03811660009081526012602052604090205460ff16156106ae5760405162461bcd60e51b815260040161057990611f6f565b6106b781610bf6565b6001600160a01b03166000908152601260205260409020805460ff19166001179055565b6106e6335b82610cd5565b6107025760405162461bcd60e51b815260040161057990611fcd565b61061f838383610d87565b60006107188361093f565b82106107365760405162461bcd60e51b815260040161057990612025565b506001600160a01b03919091166000908152600660209081526040808320938352929052205490565b61061f838383604051806020016040528060008152506109d7565b610783336106e0565b61079f5760405162461bcd60e51b81526004016105799061207b565b6107a881610eb4565b50565b600a546001600160a01b031633146107d55760405162461bcd60e51b8152600401610579906120bd565b60005b8181101561061f576107e983610bf6565b806107f3816120e3565b9150506107d8565b600061080660085490565b82106108245760405162461bcd60e51b815260040161057990612147565b6008828154811061083757610837612157565b90600052602060002001549050919050565b600a546001600160a01b031633146108735760405162461bcd60e51b8152600401610579906120bd565b6107a881610f5b565b6000818152600260205260408120546001600160a01b0316806104ad5760405162461bcd60e51b8152600401610579906121b3565b600c80546108be90611d5e565b80601f01602080910402602001604051908101604052809291908181526020018280546108ea90611d5e565b80156109375780601f1061090c57610100808354040283529160200191610937565b820191906000526020600020905b81548152906001019060200180831161091a57829003601f168201915b505050505081565b60006001600160a01b0382166109675760405162461bcd60e51b81526004016105799061220a565b506001600160a01b031660009081526003602052604090205490565b600a546001600160a01b031633146109ad5760405162461bcd60e51b8152600401610579906120bd565b6109b76000610fa9565b565b6060600180546104c290611d5e565b6109d3338383610ffb565b5050565b6109e13383610cd5565b6109fd5760405162461bcd60e51b815260040161057990611fcd565b610a098484848461109e565b50505050565b6000818152600260205260409020546060906001600160a01b0316610a465760405162461bcd60e51b81526004016105799061225f565b600c610a51836110d1565b604051602001610a629291906122ff565b6040516020818303038152906040529050919050565b600a546001600160a01b03163314610aa25760405162461bcd60e51b8152600401610579906120bd565b6109d382826111cf565b600a546001600160a01b03163314610ad65760405162461bcd60e51b8152600401610579906120bd565b6001600160a01b038116610afc5760405162461bcd60e51b81526004016105799061235a565b6107a881610fa9565b600a546001600160a01b03163314610b2f5760405162461bcd60e51b8152600401610579906120bd565b6107a881611231565b60006001600160e01b031982166380ac58cd60e01b1480610b6957506001600160e01b03198216635b5e139f60e01b145b806104ad57506301ffc9a760e01b6001600160e01b03198316146104ad565b600081815260046020526040902080546001600160a01b0319166001600160a01b0384169081179091558190610bbd8261087c565b6001600160a01b03167f8c5be1e5ebec7d5bd14f71427d1e84f3dd0314c0f7b2291e5b200ac8c7c3b92560405160405180910390a45050565b6000600e5411610c185760405162461bcd60e51b81526004016105799061239e565b600b8054906000610c28836120e3565b91905055506000610c37611266565b600081815260106020526040902054909150610c5c57610c5782826112bb565b610c76565b600081815260106020526040902054610c769083906112bb565b600e5460009081526010602052604090205415610cab57600e5460009081526010602052604080822054838352912055610cbe565b600e546000828152601060205260409020555b600e546109d390610cd09060016113a9565b6113bc565b6000818152600260205260408120546001600160a01b0316610d095760405162461bcd60e51b8152600401610579906123f7565b6000610d148361087c565b9050806001600160a01b0316846001600160a01b03161480610d5b57506001600160a01b0380821660009081526005602090815260408083209388168352929052205460ff165b80610d7f5750836001600160a01b0316610d7484610545565b6001600160a01b0316145b949350505050565b826001600160a01b0316610d9a8261087c565b6001600160a01b031614610dc05760405162461bcd60e51b815260040161057990612449565b6001600160a01b038216610de65760405162461bcd60e51b81526004016105799061249a565b610df18383836113f1565b610dfc600082610b88565b6001600160a01b0383166000908152600360205260408120805460019290610e259084906124aa565b90915550506001600160a01b0382166000908152600360205260408120805460019290610e539084906124c1565b909155505060008181526002602052604080822080546001600160a01b0319166001600160a01b0386811691821790925591518493918716917fddf252ad1be2c89b69c2b068fc378daa952ba7f163c4a11628f55a4df523b3ef91a4505050565b6000610ebf8261087c565b9050610ecd816000846113f1565b610ed8600083610b88565b6001600160a01b0381166000908152600360205260408120805460019290610f019084906124aa565b909155505060008281526002602052604080822080546001600160a01b0319169055518391906001600160a01b038416907fddf252ad1be2c89b69c2b068fc378daa952ba7f163c4a11628f55a4df523b3ef908390a45050565b8051610f6e90600c9060208401906117a8565b507f6741b2fc379fad678116fe3d4d4b9a1a184ab53ba36b86ad0fa66340b1ab41ad81604051610f9e919061190e565b60405180910390a150565b600a80546001600160a01b038381166001600160a01b0319831681179093556040519116919082907f8be0079c531659141344cd1fd0a4f28419497f9722a3daafe3b4186f6b6457e090600090a35050565b816001600160a01b0316836001600160a01b0316141561102d5760405162461bcd60e51b81526004016105799061250d565b6001600160a01b0383811660008181526005602090815260408083209487168084529490915290819020805460ff1916851515179055517f17307eab39ab6107e8899845ad3d59bd9653f200f220920489ca2b5937696c319061109190859061188e565b60405180910390a3505050565b6110a9848484610d87565b6110b5848484846114a9565b610a095760405162461bcd60e51b81526004016105799061256c565b6060816110f55750506040805180820190915260018152600360fc1b602082015290565b8160005b811561111f5780611109816120e3565b91506111189050600a83612592565b91506110f9565b60008167ffffffffffffffff81111561113a5761113a611a3b565b6040519080825280601f01601f191660200182016040528015611164576020820181803683370190505b5090505b8415610d7f576111796001836124aa565b9150611186600a866125a6565b6111919060306124c1565b60f81b8183815181106111a6576111a6612157565b60200101906001600160f81b031916908160001a9053506111c8600a86612592565b9450611168565b60008251116111f05760405162461bcd60e51b8152600401610579906125ee565b60005b825181101561061f5761121f83828151811061121157611211612157565b6020026020010151836115b6565b80611229816120e3565b9150506111f3565b600f8190556040517fedf52943c0aac396addd64b076c17e483c8cbd18671cae7e23cff0f84ea3b32390610f9e9083906118a2565b600080600b5443403360405160200161128193929190612626565b6040516020818303038152906040528051906020012060001c9050600e54816112aa91906125a6565b6112b59060016124c1565b91505090565b6001600160a01b0382166112e15760405162461bcd60e51b81526004016105799061268f565b6000818152600260205260409020546001600160a01b0316156113165760405162461bcd60e51b8152600401610579906126d3565b611322600083836113f1565b6001600160a01b038216600090815260036020526040812080546001929061134b9084906124c1565b909155505060008181526002602052604080822080546001600160a01b0319166001600160a01b03861690811790915590518392907fddf252ad1be2c89b69c2b068fc378daa952ba7f163c4a11628f55a4df523b3ef908290a45050565b60006113b582846124aa565b9392505050565b600e8190556040517f63c082b5cbc0f3aaf280371a6539ef71ced3276990fc07a8bce55d4fda3fe10b90610f9e9083906118a2565b6001600160a01b03831661144c5761144781600880546000838152600960205260408120829055600182018355919091527ff3f7a9fe364faab93b216da50a3214154f22a0a2b415b23a84c8169e8b636ee30155565b61146f565b816001600160a01b0316836001600160a01b03161461146f5761146f8382611618565b6001600160a01b0382166114865761061f816116b5565b826001600160a01b0316826001600160a01b03161461061f5761061f8282611764565b60006001600160a01b0384163b156115ab57604051630a85bd0160e11b81526001600160a01b0385169063150b7a02906114ed9033908990889088906004016126e3565b602060405180830381600087803b15801561150757600080fd5b505af1925050508015611537575060408051601f3d908101601f1916820190925261153491810190612732565b60015b611591573d808015611565576040519150601f19603f3d011682016040523d82523d6000602084013e61156a565b606091505b5080516115895760405162461bcd60e51b81526004016105799061256c565b805181602001fd5b6001600160e01b031916630a85bd0160e11b149050610d7f565b506001949350505050565b6001600160a01b03821660009081526011602052604090819020805460ff1916831515179055517fb1288e9f7bae3599e10819d5553febea48e11a6f8f585b32c8abad397dd2627e9061160c9084908490612753565b60405180910390a15050565b600060016116258461093f565b61162f91906124aa565b600083815260076020526040902054909150808214611682576001600160a01b03841660009081526006602090815260408083208584528252808320548484528184208190558352600790915290208190555b5060009182526007602090815260408084208490556001600160a01b039094168352600681528383209183525290812055565b6008546000906116c7906001906124aa565b600083815260096020526040812054600880549394509092849081106116ef576116ef612157565b90600052602060002001549050806008838154811061171057611710612157565b60009182526020808320909101929092558281526009909152604080822084905585825281205560088054806117485761174861276e565b6001900381819060005260206000200160009055905550505050565b600061176f8361093f565b6001600160a01b039093166000908152600660209081526040808320868452825280832085905593825260079052919091209190915550565b8280546117b490611d5e565b90600052602060002090601f0160209004810192826117d6576000855561181c565b82601f106117ef57805160ff191683800117855561181c565b8280016001018555821561181c579182015b8281111561181c578251825591602001919060010190611801565b5061182892915061182c565b5090565b5b80821115611828576000815560010161182d565b6001600160e01b031981165b81146107a857600080fd5b80356104ad81611841565b60006020828403121561187857611878600080fd5b6000610d7f8484611858565b8015155b82525050565b602081016104ad8284611884565b80611888565b602081016104ad828461189c565b60005b838110156118cb5781810151838201526020016118b3565b83811115610a095750506000910152565b60006118e6825190565b8084526020840193506118fd8185602086016118b0565b601f01601f19169290920192915050565b602080825281016113b581846118dc565b8061184d565b80356104ad8161191f565b60006020828403121561194557611945600080fd5b6000610d7f8484611925565b60006001600160a01b0382166104ad565b61188881611951565b602081016104ad8284611962565b61184d81611951565b80356104ad81611979565b600080604083850312156119a3576119a3600080fd5b60006119af8585611982565b92505060206119c085828601611925565b9150509250929050565b6000806000606084860312156119e2576119e2600080fd5b60006119ee8686611982565b93505060206119ff86828701611982565b9250506040611a1086828701611925565b9150509250925092565b600060208284031215611a2f57611a2f600080fd5b6000610d7f8484611982565b634e487b7160e01b600052604160045260246000fd5b601f19601f830116810181811067ffffffffffffffff82111715611a7757611a77611a3b565b6040525050565b6000611a8960405190565b9050611a958282611a51565b919050565b600067ffffffffffffffff821115611ab457611ab4611a3b565b601f19601f83011660200192915050565b82818337506000910152565b6000611ae4611adf84611a9a565b611a7e565b905082815260208101848484011115611aff57611aff600080fd5b611b0a848285611ac5565b509392505050565b600082601f830112611b2657611b26600080fd5b8135610d7f848260208601611ad1565b600060208284031215611b4b57611b4b600080fd5b813567ffffffffffffffff811115611b6557611b65600080fd5b610d7f84828501611b12565b80151561184d565b80356104ad81611b71565b60008060408385031215611b9a57611b9a600080fd5b6000611ba68585611982565b92505060206119c085828601611b79565b60008060008060808587031215611bd057611bd0600080fd5b6000611bdc8787611982565b9450506020611bed87828801611982565b9350506040611bfe87828801611925565b925050606085013567ffffffffffffffff811115611c1e57611c1e600080fd5b611c2a87828801611b12565b91505092959194509250565b600067ffffffffffffffff821115611c5057611c50611a3b565b5060209081020190565b6000611c68611adf84611c36565b83815290506020808201908402830185811115611c8757611c87600080fd5b835b81811015611cab5780611c9c8882611982565b84525060209283019201611c89565b5050509392505050565b600082601f830112611cc957611cc9600080fd5b8135610d7f848260208601611c5a565b60008060408385031215611cef57611cef600080fd5b823567ffffffffffffffff811115611d0957611d09600080fd5b611ba685828601611cb5565b60008060408385031215611d2b57611d2b600080fd5b6000611d378585611982565b92505060206119c085828601611982565b634e487b7160e01b600052602260045260246000fd5b600281046001821680611d7257607f821691505b60208210811415611d8557611d85611d48565b50919050565b602c81526000602082017f4552433732313a20617070726f76656420717565727920666f72206e6f6e657881526b34b9ba32b73a103a37b5b2b760a11b602082015291505b5060400190565b602080825281016104ad81611d8b565b602181526000602082017f4552433732313a20617070726f76616c20746f2063757272656e74206f776e658152603960f91b60208201529150611dd0565b602080825281016104ad81611de7565b603881526000602082017f4552433732313a20617070726f76652063616c6c6572206973206e6f74206f7781527f6e6572206e6f7220617070726f76656420666f7220616c6c000000000000000060208201529150611dd0565b602080825281016104ad81611e35565b601981526000602082017f4d657461204e313a2073616c65206973206e6f74206f70656e00000000000000815291505b5060200190565b602080825281016104ad81611e9f565b602881526000602082017f4d657461204e313a2063616c6c6572206973206e6f7420696e207468652077688152671a5d19481b1a5cdd60c21b60208201529150611dd0565b602080825281016104ad81611ee6565b601f81526000602082017f4d657461204e313a20746f6b656e20686173206265656e20636c61696d65640081529150611ecf565b602080825281016104ad81611f3b565b603181526000602082017f4552433732313a207472616e736665722063616c6c6572206973206e6f74206f8152701ddb995c881b9bdc88185c1c1c9bdd9959607a1b60208201529150611dd0565b602080825281016104ad81611f7f565b602b81526000602082017f455243373231456e756d657261626c653a206f776e657220696e646578206f7581526a74206f6620626f756e647360a81b60208201529150611dd0565b602080825281016104ad81611fdd565b602981526000602082017f4d657461204e313a2063616c6c6572206973206e6f74206f776e6572206e6f7281526808185c1c1c9bdd995960ba1b60208201529150611dd0565b602080825281016104ad81612035565b60208082527f4f776e61626c653a2063616c6c6572206973206e6f7420746865206f776e657291019081526000611ecf565b602080825281016104ad8161208b565b634e487b7160e01b600052601160045260246000fd5b60006000198214156120f7576120f76120cd565b5060010190565b602c81526000602082017f455243373231456e756d657261626c653a20676c6f62616c20696e646578206f81526b7574206f6620626f756e647360a01b60208201529150611dd0565b602080825281016104ad816120fe565b634e487b7160e01b600052603260045260246000fd5b602981526000602082017f4552433732313a206f776e657220717565727920666f72206e6f6e657869737481526832b73a103a37b5b2b760b91b60208201529150611dd0565b602080825281016104ad8161216d565b602a81526000602082017f4552433732313a2062616c616e636520717565727920666f7220746865207a65815269726f206164647265737360b01b60208201529150611dd0565b602080825281016104ad816121c3565b602881526000602082017f4d657461204e313a2055524920717565727920666f72206e6f6e657869737465815267373a103a37b5b2b760c11b60208201529150611dd0565b602080825281016104ad8161221a565b6000815461227c81611d5e565b60018216801561229357600181146122a4576122d4565b60ff198316865281860193506122d4565b60008581526020902060005b838110156122cc578154888201526001909101906020016122b0565b838801955050505b50505092915050565b60006122e7825190565b6122f58185602086016118b0565b9290920192915050565b600061230b828561226f565b9150610d7f82846122dd565b602681526000602082017f4f776e61626c653a206e6577206f776e657220697320746865207a65726f206181526564647265737360d01b60208201529150611dd0565b602080825281016104ad81612317565b601781526000602082017f4d657461204e313a20746f6b656e20736f6c64206f757400000000000000000081529150611ecf565b602080825281016104ad8161236a565b602c81526000602082017f4552433732313a206f70657261746f7220717565727920666f72206e6f6e657881526b34b9ba32b73a103a37b5b2b760a11b60208201529150611dd0565b602080825281016104ad816123ae565b602581526000602082017f4552433732313a207472616e736665722066726f6d20696e636f72726563742081526437bbb732b960d91b60208201529150611dd0565b602080825281016104ad81612407565b602481526000602082017f4552433732313a207472616e7366657220746f20746865207a65726f206164648152637265737360e01b60208201529150611dd0565b602080825281016104ad81612459565b6000828210156124bc576124bc6120cd565b500390565b600082198211156124d4576124d46120cd565b500190565b601981526000602082017f4552433732313a20617070726f766520746f2063616c6c65720000000000000081529150611ecf565b602080825281016104ad816124d9565b603281526000602082017f4552433732313a207472616e7366657220746f206e6f6e20455243373231526581527131b2b4bb32b91034b6b83632b6b2b73a32b960711b60208201529150611dd0565b602080825281016104ad8161251d565b634e487b7160e01b600052601260045260246000fd5b6000826125a1576125a161257c565b500490565b6000826125b5576125b561257c565b500690565b601c81526000602082017f4d657461204e313a20696e76616c6964206c697374206c656e6774680000000081529150611ecf565b602080825281016104ad816125ba565b60006104ad8260601b90565b60006104ad826125fe565b61188861262182611951565b61260a565b6000612632828661189c565b602082019150612642828561189c565b6020820191506126528284612615565b506014019392505050565b60208082527f4552433732313a206d696e7420746f20746865207a65726f206164647265737391019081526000611ecf565b602080825281016104ad8161265d565b601c81526000602082017f4552433732313a20746f6b656e20616c7265616479206d696e7465640000000081529150611ecf565b602080825281016104ad8161269f565b608081016126f18287611962565b6126fe6020830186611962565b61270b604083018561189c565b818103606083015261271d81846118dc565b9695505050505050565b80516104ad81611841565b60006020828403121561274757612747600080fd5b6000610d7f8484612727565b604081016127618285611962565b6113b56020830184611884565b634e487b7160e01b600052603160045260246000fdfea2646970667358221220935e6306d9463f121fb7d5fc6a2373a169d3b1512f59610bda190c3a236caf9064736f6c63430008090033",
  "devdoc": {
    "kind": "dev",
    "methods": {
      "approve(address,uint256)": {
        "details": "See {IERC721-approve}."
      },
      "balanceOf(address)": {
        "details": "See {IERC721-balanceOf}."
      },
      "getApproved(uint256)": {
        "details": "See {IERC721-getApproved}."
      },
      "isApprovedForAll(address,address)": {
        "details": "See {IERC721-isApprovedForAll}."
      },
      "name()": {
        "details": "See {IERC721Metadata-name}."
      },
      "owner()": {
        "details": "Returns the address of the current owner."
      },
      "ownerOf(uint256)": {
        "details": "See {IERC721-ownerOf}."
      },
      "renounceOwnership()": {
        "details": "Leaves the contract without owner. It will not be possible to call `onlyOwner` functions anymore. Can only be called by the current owner. NOTE: Renouncing ownership will leave the contract without an owner, thereby removing any functionality that is only available to the owner."
      },
      "safeTransferFrom(address,address,uint256)": {
        "details": "See {IERC721-safeTransferFrom}."
      },
      "safeTransferFrom(address,address,uint256,bytes)": {
        "details": "See {IERC721-safeTransferFrom}."
      },
      "setApprovalForAll(address,bool)": {
        "details": "See {IERC721-setApprovalForAll}."
      },
      "supportsInterface(bytes4)": {
        "details": "See {IERC165-supportsInterface}."
      },
      "symbol()": {
        "details": "See {IERC721Metadata-symbol}."
      },
      "tokenByIndex(uint256)": {
        "details": "See {IERC721Enumerable-tokenByIndex}."
      },
      "tokenOfOwnerByIndex(address,uint256)": {
        "details": "See {IERC721Enumerable-tokenOfOwnerByIndex}."
      },
      "tokenURI(uint256)": {
        "details": "See {IERC721Metadata-tokenURI}."
      },
      "totalSupply()": {
        "details": "See {IERC721Enumerable-totalSupply}."
      },
      "transferFrom(address,address,uint256)": {
        "details": "See {IERC721-transferFrom}."
      },
      "transferOwnership(address)": {
        "details": "Transfers ownership of the contract to a new account (`newOwner`). Can only be called by the current owner."
      }
    },
    "version": 1
  },
  "userdoc": {
    "kind": "user",
    "methods": {},
    "version": 1
  },
  "storageLayout": {
    "storage": [
      {
        "astId": 130,
        "contract": "contracts/MetaN1.sol:MetaN1",
        "label": "_name",
        "offset": 0,
        "slot": "0",
        "type": "t_string_storage"
      },
      {
        "astId": 132,
        "contract": "contracts/MetaN1.sol:MetaN1",
        "label": "_symbol",
        "offset": 0,
        "slot": "1",
        "type": "t_string_storage"
      },
      {
        "astId": 136,
        "contract": "contracts/MetaN1.sol:MetaN1",
        "label": "_owners",
        "offset": 0,
        "slot": "2",
        "type": "t_mapping(t_uint256,t_address)"
      },
      {
        "astId": 140,
        "contract": "contracts/MetaN1.sol:MetaN1",
        "label": "_balances",
        "offset": 0,
        "slot": "3",
        "type": "t_mapping(t_address,t_uint256)"
      },
      {
        "astId": 144,
        "contract": "contracts/MetaN1.sol:MetaN1",
        "label": "_tokenApprovals",
        "offset": 0,
        "slot": "4",
        "type": "t_mapping(t_uint256,t_address)"
      },
      {
        "astId": 150,
        "contract": "contracts/MetaN1.sol:MetaN1",
        "label": "_operatorApprovals",
        "offset": 0,
        "slot": "5",
        "type": "t_mapping(t_address,t_mapping(t_address,t_bool))"
      },
      {
        "astId": 1119,
        "contract": "contracts/MetaN1.sol:MetaN1",
        "label": "_ownedTokens",
        "offset": 0,
        "slot": "6",
        "type": "t_mapping(t_address,t_mapping(t_uint256,t_uint256))"
      },
      {
        "astId": 1123,
        "contract": "contracts/MetaN1.sol:MetaN1",
        "label": "_ownedTokensIndex",
        "offset": 0,
        "slot": "7",
        "type": "t_mapping(t_uint256,t_uint256)"
      },
      {
        "astId": 1126,
        "contract": "contracts/MetaN1.sol:MetaN1",
        "label": "_allTokens",
        "offset": 0,
        "slot": "8",
        "type": "t_array(t_uint256)dyn_storage"
      },
      {
        "astId": 1130,
        "contract": "contracts/MetaN1.sol:MetaN1",
        "label": "_allTokensIndex",
        "offset": 0,
        "slot": "9",
        "type": "t_mapping(t_uint256,t_uint256)"
      },
      {
        "astId": 7,
        "contract": "contracts/MetaN1.sol:MetaN1",
        "label": "_owner",
        "offset": 0,
        "slot": "10",
        "type": "t_address"
      },
      {
        "astId": 2387,
        "contract": "contracts/MetaN1.sol:MetaN1",
        "label": "nonce",
        "offset": 0,
        "slot": "11",
        "type": "t_uint256"
      },
      {
        "astId": 2389,
        "contract": "contracts/MetaN1.sol:MetaN1",
        "label": "baseURI",
        "offset": 0,
        "slot": "12",
        "type": "t_string_storage"
      },
      {
        "astId": 2391,
        "contract": "contracts/MetaN1.sol:MetaN1",
        "label": "supply",
        "offset": 0,
        "slot": "13",
        "type": "t_uint256"
      },
      {
        "astId": 2393,
        "contract": "contracts/MetaN1.sol:MetaN1",
        "label": "remains",
        "offset": 0,
        "slot": "14",
        "type": "t_uint256"
      },
      {
        "astId": 2395,
        "contract": "contracts/MetaN1.sol:MetaN1",
        "label": "openTime",
        "offset": 0,
        "slot": "15",
        "type": "t_uint256"
      },
      {
        "astId": 2399,
        "contract": "contracts/MetaN1.sol:MetaN1",
        "label": "slots",
        "offset": 0,
        "slot": "16",
        "type": "t_mapping(t_uint256,t_uint256)"
      },
      {
        "astId": 2403,
        "contract": "contracts/MetaN1.sol:MetaN1",
        "label": "whiteList",
        "offset": 0,
        "slot": "17",
        "type": "t_mapping(t_address,t_bool)"
      },
      {
        "astId": 2407,
        "contract": "contracts/MetaN1.sol:MetaN1",
        "label": "isClaimed",
        "offset": 0,
        "slot": "18",
        "type": "t_mapping(t_address,t_bool)"
      }
    ],
    "types": {
      "t_address": {
        "encoding": "inplace",
        "label": "address",
        "numberOfBytes": "20"
      },
      "t_array(t_uint256)dyn_storage": {
        "base": "t_uint256",
        "encoding": "dynamic_array",
        "label": "uint256[]",
        "numberOfBytes": "32"
      },
      "t_bool": {
        "encoding": "inplace",
        "label": "bool",
        "numberOfBytes": "1"
      },
      "t_mapping(t_address,t_bool)": {
        "encoding": "mapping",
        "key": "t_address",
        "label": "mapping(address => bool)",
        "numberOfBytes": "32",
        "value": "t_bool"
      },
      "t_mapping(t_address,t_mapping(t_address,t_bool))": {
        "encoding": "mapping",
        "key": "t_address",
        "label": "mapping(address => mapping(address => bool))",
        "numberOfBytes": "32",
        "value": "t_mapping(t_address,t_bool)"
      },
      "t_mapping(t_address,t_mapping(t_uint256,t_uint256))": {
        "encoding": "mapping",
        "key": "t_address",
        "label": "mapping(address => mapping(uint256 => uint256))",
        "numberOfBytes": "32",
        "value": "t_mapping(t_uint256,t_uint256)"
      },
      "t_mapping(t_address,t_uint256)": {
        "encoding": "mapping",
        "key": "t_address",
        "label": "mapping(address => uint256)",
        "numberOfBytes": "32",
        "value": "t_uint256"
      },
      "t_mapping(t_uint256,t_address)": {
        "encoding": "mapping",
        "key": "t_uint256",
        "label": "mapping(uint256 => address)",
        "numberOfBytes": "32",
        "value": "t_address"
      },
      "t_mapping(t_uint256,t_uint256)": {
        "encoding": "mapping",
        "key": "t_uint256",
        "label": "mapping(uint256 => uint256)",
        "numberOfBytes": "32",
        "value": "t_uint256"
      },
      "t_string_storage": {
        "encoding": "bytes",
        "label": "string",
        "numberOfBytes": "32"
      },
      "t_uint256": {
        "encoding": "inplace",
        "label": "uint256",
        "numberOfBytes": "32"
      }
    }
  }
}